:100000000C943A000C948E010C948E010C948E0189
:100010000C948E010C948E010C948E010C948E0124
:100020000C948E010C948E010C948E010C948E0114
:100030000C948E010C948E010C948E010C948E0104
:100040000C948E010C948E010C948E010C948E01F4
:100050000C948E010C948E010C948E010C948E01E4
:100060000C948E010C948E010100010100032A0101
:100070000101028011241FBECFEFD8E0DEBFCDBF4B
:10008000E8E6F0E040E017C0B591A59135912591E3
:10009000059107FD0CC095918591EF01F92FE82F8F
:1000A00005900D92A217B307D9F7FE0104C01D9267
:1000B000A217B307E1F7E437F40731F70E94A10074
:0800C0000C946F01F894FFCFCE
:1000C8002D2D2D2D2D204D454E55202D2D2D2D2DF1
:1000D80000312E2053656C6563696F6E6172207301
:1000E800656E7469646F202830203D2041207C2093
:1000F80031203D20422900322E2053657461722040
:1001080050574D2028302061203130302900332EBF
:10011800204578696269722052504D2065205057F9
:100128004D20617475616C00446967697465207558
:0A0138006D61206F7063616F3A0083
:100142008AB180668AB984B5836084BD85B58360CF
:1001520085BD87E690E09093C5008093C40010921D
:10016200C00088E18093C10086E08093C200809144
:100172000101811105C00E94020181E08093010109
:1001820080910001811106C00E947A0182E30E94DF
:10019200550107C0813029F40E94840182E30E9444
:0801A20062010E944401E3CF59
:1001AA00CF92DF92EF926B01E82E20E030E015C08B
:1001BA008091C00085FFFCCFAE2DC601820F931F30
:1001CA00A11D37FDAA95FC018491A7FD8081882392
:1001DA0039F08093C6002F5F3F4F2436310544F330
:1001EA008FE39CE90197F1F700C000008AE0809351
:0A01FA00C600EF90DF90CF9008954B
:1002040068EC70E080E00E94D50069ED70E080E069
:100214000E94D5006FEF70E080E00E94D50066E197
:1002240071E080E00E94D50060E371E080E00E940C
:04023400D500089554
:1002380097FB072E16F4009407D077FD09D00E948B
:10024800300107FC05D03EF4909581959F4F0895A5
:08025800709561957F4F089538
:10026000AA1BBB1B51E107C0AA1FBB1FA617B707DC
:1002700010F0A61BB70B881F991F5A95A9F78095F8
:080280009095BC01CD01089529
:100288008091C000882364F48091C600813321F4F2
:1002980081E0809300010895803311F410920001E9
:0202A8000895B7
:1002AA00853608F084E62FEF829FC001112464E6A8
:0A02BA0070E00E941C0167BD08956A
:1002C400853608F084E62FEF829FC001112464E68E
:0A02D40070E00E941C0168BD08954F
:1002DE00EC010E9493010E949201CE010E949401B2
:0602EE00CE010E94900108
:1002F40084B5806884BD84B58F7D84BD8BB18F7DCA
:040304008BB9089514
:1003080084B5806284BD84B58F7784BD8BB18F7BC3
:040318008BB9089500
:04031C000C9400003D
:040320000E946200D5
:0203240008953A
:02032600089538
:02032800089536
:01032A0001D1
:00000001FF
